{
  "_format": "hh-sol-artifact-1",
  "contractName": "hemadri",
  "sourceName": "contracts/hemadri.sol",
  "abi": [
    {
      "inputs": [],
      "stateMutability": "nonpayable",
      "type": "constructor"
    },
    {
      "inputs": [],
      "name": "ApprovalCallerNotOwnerNorApproved",
      "type": "error"
    },
    {
      "inputs": [],
      "name": "ApprovalQueryForNonexistentToken",
      "type": "error"
    },
    {
      "inputs": [],
      "name": "BalanceQueryForZeroAddress",
      "type": "error"
    },
    {
      "inputs": [],
      "name": "MintERC2309QuantityExceedsLimit",
      "type": "error"
    },
    {
      "inputs": [],
      "name": "MintToZeroAddress",
      "type": "error"
    },
    {
      "inputs": [],
      "name": "MintZeroQuantity",
      "type": "error"
    },
    {
      "inputs": [],
      "name": "OwnerQueryForNonexistentToken",
      "type": "error"
    },
    {
      "inputs": [],
      "name": "OwnershipNotInitializedForExtraData",
      "type": "error"
    },
    {
      "inputs": [],
      "name": "TransferCallerNotOwnerNorApproved",
      "type": "error"
    },
    {
      "inputs": [],
      "name": "TransferFromIncorrectOwner",
      "type": "error"
    },
    {
      "inputs": [],
      "name": "TransferToNonERC721ReceiverImplementer",
      "type": "error"
    },
    {
      "inputs": [],
      "name": "TransferToZeroAddress",
      "type": "error"
    },
    {
      "inputs": [],
      "name": "URIQueryForNonexistentToken",
      "type": "error"
    },
    {
      "anonymous": false,
      "inputs": [
        {
          "indexed": true,
          "internalType": "address",
          "name": "owner",
          "type": "address"
        },
        {
          "indexed": true,
          "internalType": "address",
          "name": "approved",
          "type": "address"
        },
        {
          "indexed": true,
          "internalType": "uint256",
          "name": "tokenId",
          "type": "uint256"
        }
      ],
      "name": "Approval",
      "type": "event"
    },
    {
      "anonymous": false,
      "inputs": [
        {
          "indexed": true,
          "internalType": "address",
          "name": "owner",
          "type": "address"
        },
        {
          "indexed": true,
          "internalType": "address",
          "name": "operator",
          "type": "address"
        },
        {
          "indexed": false,
          "internalType": "bool",
          "name": "approved",
          "type": "bool"
        }
      ],
      "name": "ApprovalForAll",
      "type": "event"
    },
    {
      "anonymous": false,
      "inputs": [
        {
          "indexed": true,
          "internalType": "uint256",
          "name": "fromTokenId",
          "type": "uint256"
        },
        {
          "indexed": false,
          "internalType": "uint256",
          "name": "toTokenId",
          "type": "uint256"
        },
        {
          "indexed": true,
          "internalType": "address",
          "name": "from",
          "type": "address"
        },
        {
          "indexed": true,
          "internalType": "address",
          "name": "to",
          "type": "address"
        }
      ],
      "name": "ConsecutiveTransfer",
      "type": "event"
    },
    {
      "anonymous": false,
      "inputs": [
        {
          "indexed": true,
          "internalType": "address",
          "name": "from",
          "type": "address"
        },
        {
          "indexed": true,
          "internalType": "address",
          "name": "to",
          "type": "address"
        },
        {
          "indexed": true,
          "internalType": "uint256",
          "name": "tokenId",
          "type": "uint256"
        }
      ],
      "name": "Transfer",
      "type": "event"
    },
    {
      "inputs": [
        {
          "internalType": "address",
          "name": "to",
          "type": "address"
        },
        {
          "internalType": "uint256",
          "name": "tokenId",
          "type": "uint256"
        }
      ],
      "name": "approve",
      "outputs": [],
      "stateMutability": "payable",
      "type": "function"
    },
    {
      "inputs": [
        {
          "internalType": "address",
          "name": "owner",
          "type": "address"
        }
      ],
      "name": "balanceOf",
      "outputs": [
        {
          "internalType": "uint256",
          "name": "",
          "type": "uint256"
        }
      ],
      "stateMutability": "view",
      "type": "function"
    },
    {
      "inputs": [],
      "name": "baseURI",
      "outputs": [
        {
          "internalType": "string",
          "name": "",
          "type": "string"
        }
      ],
      "stateMutability": "view",
      "type": "function"
    },
    {
      "inputs": [
        {
          "internalType": "uint256",
          "name": "tokenId",
          "type": "uint256"
        }
      ],
      "name": "getApproved",
      "outputs": [
        {
          "internalType": "address",
          "name": "",
          "type": "address"
        }
      ],
      "stateMutability": "view",
      "type": "function"
    },
    {
      "inputs": [],
      "name": "getPromptMessage",
      "outputs": [
        {
          "internalType": "string",
          "name": "",
          "type": "string"
        }
      ],
      "stateMutability": "view",
      "type": "function"
    },
    {
      "inputs": [
        {
          "internalType": "address",
          "name": "owner",
          "type": "address"
        },
        {
          "internalType": "address",
          "name": "operator",
          "type": "address"
        }
      ],
      "name": "isApprovedForAll",
      "outputs": [
        {
          "internalType": "bool",
          "name": "",
          "type": "bool"
        }
      ],
      "stateMutability": "view",
      "type": "function"
    },
    {
      "inputs": [],
      "name": "maximumNFTs",
      "outputs": [
        {
          "internalType": "uint256",
          "name": "",
          "type": "uint256"
        }
      ],
      "stateMutability": "view",
      "type": "function"
    },
    {
      "inputs": [
        {
          "internalType": "uint256",
          "name": "quantity",
          "type": "uint256"
        }
      ],
      "name": "mint",
      "outputs": [],
      "stateMutability": "payable",
      "type": "function"
    },
    {
      "inputs": [],
      "name": "name",
      "outputs": [
        {
          "internalType": "string",
          "name": "",
          "type": "string"
        }
      ],
      "stateMutability": "view",
      "type": "function"
    },
    {
      "inputs": [],
      "name": "owner",
      "outputs": [
        {
          "internalType": "address",
          "name": "",
          "type": "address"
        }
      ],
      "stateMutability": "view",
      "type": "function"
    },
    {
      "inputs": [
        {
          "internalType": "uint256",
          "name": "tokenId",
          "type": "uint256"
        }
      ],
      "name": "ownerOf",
      "outputs": [
        {
          "internalType": "address",
          "name": "",
          "type": "address"
        }
      ],
      "stateMutability": "view",
      "type": "function"
    },
    {
      "inputs": [],
      "name": "promptMessage",
      "outputs": [
        {
          "internalType": "string",
          "name": "",
          "type": "string"
        }
      ],
      "stateMutability": "view",
      "type": "function"
    },
    {
      "inputs": [
        {
          "internalType": "address",
          "name": "from",
          "type": "address"
        },
        {
          "internalType": "address",
          "name": "to",
          "type": "address"
        },
        {
          "internalType": "uint256",
          "name": "tokenId",
          "type": "uint256"
        }
      ],
      "name": "safeTransferFrom",
      "outputs": [],
      "stateMutability": "payable",
      "type": "function"
    },
    {
      "inputs": [
        {
          "internalType": "address",
          "name": "from",
          "type": "address"
        },
        {
          "internalType": "address",
          "name": "to",
          "type": "address"
        },
        {
          "internalType": "uint256",
          "name": "tokenId",
          "type": "uint256"
        },
        {
          "internalType": "bytes",
          "name": "_data",
          "type": "bytes"
        }
      ],
      "name": "safeTransferFrom",
      "outputs": [],
      "stateMutability": "payable",
      "type": "function"
    },
    {
      "inputs": [
        {
          "internalType": "address",
          "name": "operator",
          "type": "address"
        },
        {
          "internalType": "bool",
          "name": "approved",
          "type": "bool"
        }
      ],
      "name": "setApprovalForAll",
      "outputs": [],
      "stateMutability": "nonpayable",
      "type": "function"
    },
    {
      "inputs": [
        {
          "internalType": "bytes4",
          "name": "interfaceId",
          "type": "bytes4"
        }
      ],
      "name": "supportsInterface",
      "outputs": [
        {
          "internalType": "bool",
          "name": "",
          "type": "bool"
        }
      ],
      "stateMutability": "view",
      "type": "function"
    },
    {
      "inputs": [],
      "name": "symbol",
      "outputs": [
        {
          "internalType": "string",
          "name": "",
          "type": "string"
        }
      ],
      "stateMutability": "view",
      "type": "function"
    },
    {
      "inputs": [
        {
          "internalType": "uint256",
          "name": "tokenId",
          "type": "uint256"
        }
      ],
      "name": "tokenURI",
      "outputs": [
        {
          "internalType": "string",
          "name": "",
          "type": "string"
        }
      ],
      "stateMutability": "view",
      "type": "function"
    },
    {
      "inputs": [],
      "name": "totalSupply",
      "outputs": [
        {
          "internalType": "uint256",
          "name": "",
          "type": "uint256"
        }
      ],
      "stateMutability": "view",
      "type": "function"
    },
    {
      "inputs": [
        {
          "internalType": "address",
          "name": "from",
          "type": "address"
        },
        {
          "internalType": "address",
          "name": "to",
          "type": "address"
        },
        {
          "internalType": "uint256",
          "name": "tokenId",
          "type": "uint256"
        }
      ],
      "name": "transferFrom",
      "outputs": [],
      "stateMutability": "payable",
      "type": "function"
    }
  ],
  "bytecode": "0x60806040526005600955604051806080016040528060518152602001620025a960519139600a9081620000339190620003db565b506040518060600160405280602281526020016200258760229139600b90816200005e9190620003db565b503480156200006c57600080fd5b506040518060400160405280600781526020017f48656d61647269000000000000000000000000000000000000000000000000008152506040518060400160405280600481526020017f4d56534f000000000000000000000000000000000000000000000000000000008152508160029081620000ea9190620003db565b508060039081620000fc9190620003db565b506200010d6200015c60201b60201c565b600081905550505033600860006101000a81548173ffffffffffffffffffffffffffffffffffffffff021916908373ffffffffffffffffffffffffffffffffffffffff160217905550620004c2565b600090565b600081519050919050565b7f4e487b7100000000000000000000000000000000000000000000000000000000600052604160045260246000fd5b7f4e487b7100000000000000000000000000000000000000000000000000000000600052602260045260246000fd5b60006002820490506001821680620001e357607f821691505b602082108103620001f957620001f86200019b565b5b50919050565b60008190508160005260206000209050919050565b60006020601f8301049050919050565b600082821b905092915050565b600060088302620002637fffffffffffffffffffffffffffffffffffffffffffffffffffffffffffffffff8262000224565b6200026f868362000224565b95508019841693508086168417925050509392505050565b6000819050919050565b6000819050919050565b6000620002bc620002b6620002b08462000287565b62000291565b62000287565b9050919050565b6000819050919050565b620002d8836200029b565b620002f0620002e782620002c3565b84845462000231565b825550505050565b600090565b62000307620002f8565b62000314818484620002cd565b505050565b5b818110156200033c5762000330600082620002fd565b6001810190506200031a565b5050565b601f8211156200038b576200035581620001ff565b620003608462000214565b8101602085101562000370578190505b620003886200037f8562000214565b83018262000319565b50505b505050565b600082821c905092915050565b6000620003b06000198460080262000390565b1980831691505092915050565b6000620003cb83836200039d565b9150826002028217905092915050565b620003e68262000161565b67ffffffffffffffff8111156200040257620004016200016c565b5b6200040e8254620001ca565b6200041b82828562000340565b600060209050601f8311600181146200045357600084156200043e578287015190505b6200044a8582620003bd565b865550620004ba565b601f1984166200046386620001ff565b60005b828110156200048d5784890151825560018201915060208501945060208101905062000466565b86831015620004ad5784890151620004a9601f8916826200039d565b8355505b6001600288020188555050505b505050505050565b6120b580620004d26000396000f3fe60806040526004361061011f5760003560e01c80636352211e116100a0578063a0712d6811610064578063a0712d68146103c4578063a22cb465146103e0578063b88d4fde14610409578063c87b56dd14610425578063e985e9c5146104625761011f565b80636352211e146102c95780636c0360eb1461030657806370a08231146103315780638da5cb5b1461036e57806395d89b41146103995761011f565b806323b872dd116100e757806323b872dd146102105780632bf85e821461022c5780633741f73d1461025757806342842e0e1461028257806360874ec41461029e5761011f565b806301ffc9a71461012457806306fdde0314610161578063081812fc1461018c578063095ea7b3146101c957806318160ddd146101e5575b600080fd5b34801561013057600080fd5b5061014b6004803603810190610146919061182d565b61049f565b6040516101589190611875565b60405180910390f35b34801561016d57600080fd5b50610176610531565b6040516101839190611920565b60405180910390f35b34801561019857600080fd5b506101b360048036038101906101ae9190611978565b6105c3565b6040516101c091906119e6565b60405180910390f35b6101e360048036038101906101de9190611a2d565b610642565b005b3480156101f157600080fd5b506101fa610786565b6040516102079190611a7c565b60405180910390f35b61022a60048036038101906102259190611a97565b61079d565b005b34801561023857600080fd5b50610241610abf565b60405161024e9190611920565b60405180910390f35b34801561026357600080fd5b5061026c610b51565b6040516102799190611a7c565b60405180910390f35b61029c60048036038101906102979190611a97565b610b57565b005b3480156102aa57600080fd5b506102b3610b77565b6040516102c09190611920565b60405180910390f35b3480156102d557600080fd5b506102f060048036038101906102eb9190611978565b610c05565b6040516102fd91906119e6565b60405180910390f35b34801561031257600080fd5b5061031b610c17565b6040516103289190611920565b60405180910390f35b34801561033d57600080fd5b5061035860048036038101906103539190611aea565b610ca5565b6040516103659190611a7c565b60405180910390f35b34801561037a57600080fd5b50610383610d5d565b60405161039091906119e6565b60405180910390f35b3480156103a557600080fd5b506103ae610d83565b6040516103bb9190611920565b60405180910390f35b6103de60048036038101906103d99190611978565b610e15565b005b3480156103ec57600080fd5b5061040760048036038101906104029190611b43565b610f09565b005b610423600480360381019061041e9190611cb8565b611014565b005b34801561043157600080fd5b5061044c60048036038101906104479190611978565b611087565b6040516104599190611920565b60405180910390f35b34801561046e57600080fd5b5061048960048036038101906104849190611d3b565b611125565b6040516104969190611875565b60405180910390f35b60006301ffc9a760e01b827bffffffffffffffffffffffffffffffffffffffffffffffffffffffff191614806104fa57506380ac58cd60e01b827bffffffffffffffffffffffffffffffffffffffffffffffffffffffff1916145b8061052a5750635b5e139f60e01b827bffffffffffffffffffffffffffffffffffffffffffffffffffffffff1916145b9050919050565b60606002805461054090611daa565b80601f016020809104026020016040519081016040528092919081815260200182805461056c90611daa565b80156105b95780601f1061058e576101008083540402835291602001916105b9565b820191906000526020600020905b81548152906001019060200180831161059c57829003601f168201915b5050505050905090565b60006105ce826111b9565b610604576040517fcf4700e400000000000000000000000000000000000000000000000000000000815260040160405180910390fd5b6006600083815260200190815260200160002060000160009054906101000a900473ffffffffffffffffffffffffffffffffffffffff169050919050565b600061064d82610c05565b90508073ffffffffffffffffffffffffffffffffffffffff1661066e611218565b73ffffffffffffffffffffffffffffffffffffffff16146106d15761069a81610695611218565b611125565b6106d0576040517fcfb3b94200000000000000000000000000000000000000000000000000000000815260040160405180910390fd5b5b826006600084815260200190815260200160002060000160006101000a81548173ffffffffffffffffffffffffffffffffffffffff021916908373ffffffffffffffffffffffffffffffffffffffff160217905550818373ffffffffffffffffffffffffffffffffffffffff168273ffffffffffffffffffffffffffffffffffffffff167f8c5be1e5ebec7d5bd14f71427d1e84f3dd0314c0f7b2291e5b200ac8c7c3b92560405160405180910390a4505050565b6000610790611220565b6001546000540303905090565b60006107a882611225565b90508373ffffffffffffffffffffffffffffffffffffffff168173ffffffffffffffffffffffffffffffffffffffff161461080f576040517fa114810000000000000000000000000000000000000000000000000000000000815260040160405180910390fd5b60008061081b846112f1565b91509150610831818761082c611218565b611318565b61087d5761084686610841611218565b611125565b61087c576040517f59c896be00000000000000000000000000000000000000000000000000000000815260040160405180910390fd5b5b600073ffffffffffffffffffffffffffffffffffffffff168573ffffffffffffffffffffffffffffffffffffffff16036108e3576040517fea553b3400000000000000000000000000000000000000000000000000000000815260040160405180910390fd5b6108f0868686600161135c565b80156108fb57600082555b600560008773ffffffffffffffffffffffffffffffffffffffff1673ffffffffffffffffffffffffffffffffffffffff168152602001908152602001600020600081546001900391905081905550600560008673ffffffffffffffffffffffffffffffffffffffff1673ffffffffffffffffffffffffffffffffffffffff16815260200190815260200160002060008154600101919050819055506109c9856109a5888887611362565b7c02000000000000000000000000000000000000000000000000000000001761138a565b600460008681526020019081526020016000208190555060007c0200000000000000000000000000000000000000000000000000000000841603610a4f5760006001850190506000600460008381526020019081526020016000205403610a4d576000548114610a4c578360046000838152602001908152602001600020819055505b5b505b838573ffffffffffffffffffffffffffffffffffffffff168773ffffffffffffffffffffffffffffffffffffffff167fddf252ad1be2c89b69c2b068fc378daa952ba7f163c4a11628f55a4df523b3ef60405160405180910390a4610ab786868660016113b5565b505050505050565b6060600b8054610ace90611daa565b80601f0160208091040260200160405190810160405280929190818152602001828054610afa90611daa565b8015610b475780601f10610b1c57610100808354040283529160200191610b47565b820191906000526020600020905b815481529060010190602001808311610b2a57829003601f168201915b5050505050905090565b60095481565b610b7283838360405180602001604052806000815250611014565b505050565b600b8054610b8490611daa565b80601f0160208091040260200160405190810160405280929190818152602001828054610bb090611daa565b8015610bfd5780601f10610bd257610100808354040283529160200191610bfd565b820191906000526020600020905b815481529060010190602001808311610be057829003601f168201915b505050505081565b6000610c1082611225565b9050919050565b600a8054610c2490611daa565b80601f0160208091040260200160405190810160405280929190818152602001828054610c5090611daa565b8015610c9d5780601f10610c7257610100808354040283529160200191610c9d565b820191906000526020600020905b815481529060010190602001808311610c8057829003601f168201915b505050505081565b60008073ffffffffffffffffffffffffffffffffffffffff168273ffffffffffffffffffffffffffffffffffffffff1603610d0c576040517f8f4eb60400000000000000000000000000000000000000000000000000000000815260040160405180910390fd5b67ffffffffffffffff600560008473ffffffffffffffffffffffffffffffffffffffff1673ffffffffffffffffffffffffffffffffffffffff16815260200190815260200160002054169050919050565b600860009054906101000a900473ffffffffffffffffffffffffffffffffffffffff1681565b606060038054610d9290611daa565b80601f0160208091040260200160405190810160405280929190818152602001828054610dbe90611daa565b8015610e0b5780601f10610de057610100808354040283529160200191610e0b565b820191906000526020600020905b815481529060010190602001808311610dee57829003601f168201915b5050505050905090565b600860009054906101000a900473ffffffffffffffffffffffffffffffffffffffff1673ffffffffffffffffffffffffffffffffffffffff163373ffffffffffffffffffffffffffffffffffffffff1614610ea5576040517f08c379a0000000000000000000000000000000000000000000000000000000008152600401610e9c90611e27565b60405180910390fd5b60095481610eb1610786565b610ebb9190611e76565b1115610efc576040517f08c379a0000000000000000000000000000000000000000000000000000000008152600401610ef390611f1c565b60405180910390fd5b610f0633826113bb565b50565b8060076000610f16611218565b73ffffffffffffffffffffffffffffffffffffffff1673ffffffffffffffffffffffffffffffffffffffff16815260200190815260200160002060008473ffffffffffffffffffffffffffffffffffffffff1673ffffffffffffffffffffffffffffffffffffffff16815260200190815260200160002060006101000a81548160ff0219169083151502179055508173ffffffffffffffffffffffffffffffffffffffff16610fc3611218565b73ffffffffffffffffffffffffffffffffffffffff167f17307eab39ab6107e8899845ad3d59bd9653f200f220920489ca2b5937696c31836040516110089190611875565b60405180910390a35050565b61101f84848461079d565b60008373ffffffffffffffffffffffffffffffffffffffff163b146110815761104a84848484611576565b611080576040517fd1a57ed600000000000000000000000000000000000000000000000000000000815260040160405180910390fd5b5b50505050565b6060611092826111b9565b6110c8576040517fa14c4b5000000000000000000000000000000000000000000000000000000000815260040160405180910390fd5b60006110d26116c6565b905060008151036110f2576040518060200160405280600081525061111d565b806110fc84611758565b60405160200161110d929190611f78565b6040516020818303038152906040525b915050919050565b6000600760008473ffffffffffffffffffffffffffffffffffffffff1673ffffffffffffffffffffffffffffffffffffffff16815260200190815260200160002060008373ffffffffffffffffffffffffffffffffffffffff1673ffffffffffffffffffffffffffffffffffffffff16815260200190815260200160002060009054906101000a900460ff16905092915050565b6000816111c4611220565b111580156111d3575060005482105b8015611211575060007c0100000000000000000000000000000000000000000000000000000000600460008581526020019081526020016000205416145b9050919050565b600033905090565b600090565b60008082905080611234611220565b116112ba576000548110156112b95760006004600083815260200190815260200160002054905060007c01000000000000000000000000000000000000000000000000000000008216036112b7575b600081036112ad576004600083600190039350838152602001908152602001600020549050611283565b80925050506112ec565b505b5b6040517fdf2d9b4200000000000000000000000000000000000000000000000000000000815260040160405180910390fd5b919050565b60008060006006600085815260200190815260200160002090508092508254915050915091565b600073ffffffffffffffffffffffffffffffffffffffff8316925073ffffffffffffffffffffffffffffffffffffffff821691508382148383141790509392505050565b50505050565b60008060e883901c905060e86113798686846117a8565b62ffffff16901b9150509392505050565b600073ffffffffffffffffffffffffffffffffffffffff83169250814260a01b178317905092915050565b50505050565b600080549050600082036113fb576040517fb562e8dd00000000000000000000000000000000000000000000000000000000815260040160405180910390fd5b611408600084838561135c565b600160406001901b178202600560008573ffffffffffffffffffffffffffffffffffffffff1673ffffffffffffffffffffffffffffffffffffffff1681526020019081526020016000206000828254019250508190555061147f836114706000866000611362565b611479856117b1565b1761138a565b6004600083815260200190815260200160002081905550600080838301905073ffffffffffffffffffffffffffffffffffffffff85169150828260007fddf252ad1be2c89b69c2b068fc378daa952ba7f163c4a11628f55a4df523b3ef600080a4600183015b81811461152057808360007fddf252ad1be2c89b69c2b068fc378daa952ba7f163c4a11628f55a4df523b3ef600080a46001810190506114e5565b506000820361155b576040517f2e07630000000000000000000000000000000000000000000000000000000000815260040160405180910390fd5b80600081905550505061157160008483856113b5565b505050565b60008373ffffffffffffffffffffffffffffffffffffffff1663150b7a0261159c611218565b8786866040518563ffffffff1660e01b81526004016115be9493929190611ff1565b6020604051808303816000875af19250505080156115fa57506040513d601f19601f820116820180604052508101906115f79190612052565b60015b611673573d806000811461162a576040519150601f19603f3d011682016040523d82523d6000602084013e61162f565b606091505b50600081510361166b576040517fd1a57ed600000000000000000000000000000000000000000000000000000000815260040160405180910390fd5b805181602001fd5b63150b7a0260e01b7bffffffffffffffffffffffffffffffffffffffffffffffffffffffff1916817bffffffffffffffffffffffffffffffffffffffffffffffffffffffff191614915050949350505050565b6060600a80546116d590611daa565b80601f016020809104026020016040519081016040528092919081815260200182805461170190611daa565b801561174e5780601f106117235761010080835404028352916020019161174e565b820191906000526020600020905b81548152906001019060200180831161173157829003601f168201915b5050505050905090565b606060a060405101806040526020810391506000825281835b60011561179357600184039350600a81066030018453600a8104905080611771575b50828103602084039350808452505050919050565b60009392505050565b60006001821460e11b9050919050565b6000604051905090565b600080fd5b600080fd5b60007fffffffff0000000000000000000000000000000000000000000000000000000082169050919050565b61180a816117d5565b811461181557600080fd5b50565b60008135905061182781611801565b92915050565b600060208284031215611843576118426117cb565b5b600061185184828501611818565b91505092915050565b60008115159050919050565b61186f8161185a565b82525050565b600060208201905061188a6000830184611866565b92915050565b600081519050919050565b600082825260208201905092915050565b60005b838110156118ca5780820151818401526020810190506118af565b60008484015250505050565b6000601f19601f8301169050919050565b60006118f282611890565b6118fc818561189b565b935061190c8185602086016118ac565b611915816118d6565b840191505092915050565b6000602082019050818103600083015261193a81846118e7565b905092915050565b6000819050919050565b61195581611942565b811461196057600080fd5b50565b6000813590506119728161194c565b92915050565b60006020828403121561198e5761198d6117cb565b5b600061199c84828501611963565b91505092915050565b600073ffffffffffffffffffffffffffffffffffffffff82169050919050565b60006119d0826119a5565b9050919050565b6119e0816119c5565b82525050565b60006020820190506119fb60008301846119d7565b92915050565b611a0a816119c5565b8114611a1557600080fd5b50565b600081359050611a2781611a01565b92915050565b60008060408385031215611a4457611a436117cb565b5b6000611a5285828601611a18565b9250506020611a6385828601611963565b9150509250929050565b611a7681611942565b82525050565b6000602082019050611a916000830184611a6d565b92915050565b600080600060608486031215611ab057611aaf6117cb565b5b6000611abe86828701611a18565b9350506020611acf86828701611a18565b9250506040611ae086828701611963565b9150509250925092565b600060208284031215611b0057611aff6117cb565b5b6000611b0e84828501611a18565b91505092915050565b611b208161185a565b8114611b2b57600080fd5b50565b600081359050611b3d81611b17565b92915050565b60008060408385031215611b5a57611b596117cb565b5b6000611b6885828601611a18565b9250506020611b7985828601611b2e565b9150509250929050565b600080fd5b600080fd5b7f4e487b7100000000000000000000000000000000000000000000000000000000600052604160045260246000fd5b611bc5826118d6565b810181811067ffffffffffffffff82111715611be457611be3611b8d565b5b80604052505050565b6000611bf76117c1565b9050611c038282611bbc565b919050565b600067ffffffffffffffff821115611c2357611c22611b8d565b5b611c2c826118d6565b9050602081019050919050565b82818337600083830152505050565b6000611c5b611c5684611c08565b611bed565b905082815260208101848484011115611c7757611c76611b88565b5b611c82848285611c39565b509392505050565b600082601f830112611c9f57611c9e611b83565b5b8135611caf848260208601611c48565b91505092915050565b60008060008060808587031215611cd257611cd16117cb565b5b6000611ce087828801611a18565b9450506020611cf187828801611a18565b9350506040611d0287828801611963565b925050606085013567ffffffffffffffff811115611d2357611d226117d0565b5b611d2f87828801611c8a565b91505092959194509250565b60008060408385031215611d5257611d516117cb565b5b6000611d6085828601611a18565b9250506020611d7185828601611a18565b9150509250929050565b7f4e487b7100000000000000000000000000000000000000000000000000000000600052602260045260246000fd5b60006002820490506001821680611dc257607f821691505b602082108103611dd557611dd4611d7b565b5b50919050565b7f4f6e6c79206f776e65722063616e206163636573730000000000000000000000600082015250565b6000611e1160158361189b565b9150611e1c82611ddb565b602082019050919050565b60006020820190508181036000830152611e4081611e04565b9050919050565b7f4e487b7100000000000000000000000000000000000000000000000000000000600052601160045260246000fd5b6000611e8182611942565b9150611e8c83611942565b9250828201905080821115611ea457611ea3611e47565b5b92915050565b7f6e6f74206d6f7265207468616e2035206e6674732063616e206265206d696e7460008201527f6564000000000000000000000000000000000000000000000000000000000000602082015250565b6000611f0660228361189b565b9150611f1182611eaa565b604082019050919050565b60006020820190508181036000830152611f3581611ef9565b9050919050565b600081905092915050565b6000611f5282611890565b611f5c8185611f3c565b9350611f6c8185602086016118ac565b80840191505092915050565b6000611f848285611f47565b9150611f908284611f47565b91508190509392505050565b600081519050919050565b600082825260208201905092915050565b6000611fc382611f9c565b611fcd8185611fa7565b9350611fdd8185602086016118ac565b611fe6816118d6565b840191505092915050565b600060808201905061200660008301876119d7565b61201360208301866119d7565b6120206040830185611a6d565b81810360608301526120328184611fb8565b905095945050505050565b60008151905061204c81611801565b92915050565b600060208284031215612068576120676117cb565b5b60006120768482850161203d565b9150509291505056fea2646970667358221220f07ab6baa82efb315b62130bd4286be9d2e3fb7160fc11edecbc1c708015201964736f6c6343000812003357656c636f6d6520746f2048656d61647269204e465420436f6c6c656374696f6e2168747470733a2f2f676174657761792e70696e6174612e636c6f75642f697066732f516d587a5a6e764a41757a536945556939356550354c77557a75516a684c347653384d6e69534d5a597032596f4a2f",
  "linkReferences": {},
  "deployedLinkReferences": {}
}